{
  "_format": "hh-sol-artifact-1",
  "contractName": "CollegeVerseSBT",
  "sourceName": "contracts/CollegeVerseSBT.sol",
  "abi": [
    {
      "inputs": [],
      "stateMutability": "nonpayable",
      "type": "constructor"
    },
    {
      "inputs": [
        {
          "internalType": "address",
          "name": "sender",
          "type": "address"
        },
        {
          "internalType": "uint256",
          "name": "tokenId",
          "type": "uint256"
        },
        {
          "internalType": "address",
          "name": "owner",
          "type": "address"
        }
      ],
      "name": "ERC721IncorrectOwner",
      "type": "error"
    },
    {
      "inputs": [
        {
          "internalType": "address",
          "name": "operator",
          "type": "address"
        },
        {
          "internalType": "uint256",
          "name": "tokenId",
          "type": "uint256"
        }
      ],
      "name": "ERC721InsufficientApproval",
      "type": "error"
    },
    {
      "inputs": [
        {
          "internalType": "address",
          "name": "approver",
          "type": "address"
        }
      ],
      "name": "ERC721InvalidApprover",
      "type": "error"
    },
    {
      "inputs": [
        {
          "internalType": "address",
          "name": "operator",
          "type": "address"
        }
      ],
      "name": "ERC721InvalidOperator",
      "type": "error"
    },
    {
      "inputs": [
        {
          "internalType": "address",
          "name": "owner",
          "type": "address"
        }
      ],
      "name": "ERC721InvalidOwner",
      "type": "error"
    },
    {
      "inputs": [
        {
          "internalType": "address",
          "name": "receiver",
          "type": "address"
        }
      ],
      "name": "ERC721InvalidReceiver",
      "type": "error"
    },
    {
      "inputs": [
        {
          "internalType": "address",
          "name": "sender",
          "type": "address"
        }
      ],
      "name": "ERC721InvalidSender",
      "type": "error"
    },
    {
      "inputs": [
        {
          "internalType": "uint256",
          "name": "tokenId",
          "type": "uint256"
        }
      ],
      "name": "ERC721NonexistentToken",
      "type": "error"
    },
    {
      "inputs": [
        {
          "internalType": "address",
          "name": "owner",
          "type": "address"
        }
      ],
      "name": "OwnableInvalidOwner",
      "type": "error"
    },
    {
      "inputs": [
        {
          "internalType": "address",
          "name": "account",
          "type": "address"
        }
      ],
      "name": "OwnableUnauthorizedAccount",
      "type": "error"
    },
    {
      "anonymous": false,
      "inputs": [
        {
          "indexed": true,
          "internalType": "address",
          "name": "owner",
          "type": "address"
        },
        {
          "indexed": true,
          "internalType": "address",
          "name": "approved",
          "type": "address"
        },
        {
          "indexed": true,
          "internalType": "uint256",
          "name": "tokenId",
          "type": "uint256"
        }
      ],
      "name": "Approval",
      "type": "event"
    },
    {
      "anonymous": false,
      "inputs": [
        {
          "indexed": true,
          "internalType": "address",
          "name": "owner",
          "type": "address"
        },
        {
          "indexed": true,
          "internalType": "address",
          "name": "operator",
          "type": "address"
        },
        {
          "indexed": false,
          "internalType": "bool",
          "name": "approved",
          "type": "bool"
        }
      ],
      "name": "ApprovalForAll",
      "type": "event"
    },
    {
      "anonymous": false,
      "inputs": [
        {
          "indexed": false,
          "internalType": "uint256",
          "name": "_fromTokenId",
          "type": "uint256"
        },
        {
          "indexed": false,
          "internalType": "uint256",
          "name": "_toTokenId",
          "type": "uint256"
        }
      ],
      "name": "BatchMetadataUpdate",
      "type": "event"
    },
    {
      "anonymous": false,
      "inputs": [
        {
          "indexed": false,
          "internalType": "uint256",
          "name": "_tokenId",
          "type": "uint256"
        }
      ],
      "name": "MetadataUpdate",
      "type": "event"
    },
    {
      "anonymous": false,
      "inputs": [
        {
          "indexed": true,
          "internalType": "address",
          "name": "previousOwner",
          "type": "address"
        },
        {
          "indexed": true,
          "internalType": "address",
          "name": "newOwner",
          "type": "address"
        }
      ],
      "name": "OwnershipTransferred",
      "type": "event"
    },
    {
      "anonymous": false,
      "inputs": [
        {
          "indexed": true,
          "internalType": "address",
          "name": "to",
          "type": "address"
        },
        {
          "indexed": true,
          "internalType": "uint256",
          "name": "tokenId",
          "type": "uint256"
        },
        {
          "indexed": false,
          "internalType": "string",
          "name": "reason",
          "type": "string"
        }
      ],
      "name": "SBTMinted",
      "type": "event"
    },
    {
      "anonymous": false,
      "inputs": [
        {
          "indexed": true,
          "internalType": "address",
          "name": "from",
          "type": "address"
        },
        {
          "indexed": true,
          "internalType": "address",
          "name": "to",
          "type": "address"
        },
        {
          "indexed": true,
          "internalType": "uint256",
          "name": "tokenId",
          "type": "uint256"
        }
      ],
      "name": "Transfer",
      "type": "event"
    },
    {
      "inputs": [
        {
          "internalType": "address",
          "name": "",
          "type": "address"
        },
        {
          "internalType": "uint256",
          "name": "",
          "type": "uint256"
        }
      ],
      "name": "approve",
      "outputs": [],
      "stateMutability": "pure",
      "type": "function"
    },
    {
      "inputs": [
        {
          "internalType": "address",
          "name": "owner",
          "type": "address"
        }
      ],
      "name": "balanceOf",
      "outputs": [
        {
          "internalType": "uint256",
          "name": "",
          "type": "uint256"
        }
      ],
      "stateMutability": "view",
      "type": "function"
    },
    {
      "inputs": [
        {
          "internalType": "uint256",
          "name": "tokenId",
          "type": "uint256"
        }
      ],
      "name": "getApproved",
      "outputs": [
        {
          "internalType": "address",
          "name": "",
          "type": "address"
        }
      ],
      "stateMutability": "view",
      "type": "function"
    },
    {
      "inputs": [
        {
          "internalType": "address",
          "name": "owner",
          "type": "address"
        },
        {
          "internalType": "address",
          "name": "operator",
          "type": "address"
        }
      ],
      "name": "isApprovedForAll",
      "outputs": [
        {
          "internalType": "bool",
          "name": "",
          "type": "bool"
        }
      ],
      "stateMutability": "view",
      "type": "function"
    },
    {
      "inputs": [
        {
          "internalType": "address",
          "name": "to",
          "type": "address"
        },
        {
          "internalType": "string",
          "name": "uri",
          "type": "string"
        },
        {
          "internalType": "string",
          "name": "reason",
          "type": "string"
        }
      ],
      "name": "mint",
      "outputs": [
        {
          "internalType": "uint256",
          "name": "",
          "type": "uint256"
        }
      ],
      "stateMutability": "nonpayable",
      "type": "function"
    },
    {
      "inputs": [],
      "name": "name",
      "outputs": [
        {
          "internalType": "string",
          "name": "",
          "type": "string"
        }
      ],
      "stateMutability": "view",
      "type": "function"
    },
    {
      "inputs": [],
      "name": "owner",
      "outputs": [
        {
          "internalType": "address",
          "name": "",
          "type": "address"
        }
      ],
      "stateMutability": "view",
      "type": "function"
    },
    {
      "inputs": [
        {
          "internalType": "uint256",
          "name": "tokenId",
          "type": "uint256"
        }
      ],
      "name": "ownerOf",
      "outputs": [
        {
          "internalType": "address",
          "name": "",
          "type": "address"
        }
      ],
      "stateMutability": "view",
      "type": "function"
    },
    {
      "inputs": [],
      "name": "renounceOwnership",
      "outputs": [],
      "stateMutability": "nonpayable",
      "type": "function"
    },
    {
      "inputs": [
        {
          "internalType": "address",
          "name": "from",
          "type": "address"
        },
        {
          "internalType": "address",
          "name": "to",
          "type": "address"
        },
        {
          "internalType": "uint256",
          "name": "tokenId",
          "type": "uint256"
        }
      ],
      "name": "safeTransferFrom",
      "outputs": [],
      "stateMutability": "nonpayable",
      "type": "function"
    },
    {
      "inputs": [
        {
          "internalType": "address",
          "name": "from",
          "type": "address"
        },
        {
          "internalType": "address",
          "name": "to",
          "type": "address"
        },
        {
          "internalType": "uint256",
          "name": "tokenId",
          "type": "uint256"
        },
        {
          "internalType": "bytes",
          "name": "data",
          "type": "bytes"
        }
      ],
      "name": "safeTransferFrom",
      "outputs": [],
      "stateMutability": "nonpayable",
      "type": "function"
    },
    {
      "inputs": [
        {
          "internalType": "address",
          "name": "",
          "type": "address"
        },
        {
          "internalType": "bool",
          "name": "",
          "type": "bool"
        }
      ],
      "name": "setApprovalForAll",
      "outputs": [],
      "stateMutability": "pure",
      "type": "function"
    },
    {
      "inputs": [
        {
          "internalType": "bytes4",
          "name": "interfaceId",
          "type": "bytes4"
        }
      ],
      "name": "supportsInterface",
      "outputs": [
        {
          "internalType": "bool",
          "name": "",
          "type": "bool"
        }
      ],
      "stateMutability": "view",
      "type": "function"
    },
    {
      "inputs": [],
      "name": "symbol",
      "outputs": [
        {
          "internalType": "string",
          "name": "",
          "type": "string"
        }
      ],
      "stateMutability": "view",
      "type": "function"
    },
    {
      "inputs": [
        {
          "internalType": "uint256",
          "name": "tokenId",
          "type": "uint256"
        }
      ],
      "name": "tokenURI",
      "outputs": [
        {
          "internalType": "string",
          "name": "",
          "type": "string"
        }
      ],
      "stateMutability": "view",
      "type": "function"
    },
    {
      "inputs": [],
      "name": "totalMinted",
      "outputs": [
        {
          "internalType": "uint256",
          "name": "",
          "type": "uint256"
        }
      ],
      "stateMutability": "view",
      "type": "function"
    },
    {
      "inputs": [
        {
          "internalType": "address",
          "name": "from",
          "type": "address"
        },
        {
          "internalType": "address",
          "name": "to",
          "type": "address"
        },
        {
          "internalType": "uint256",
          "name": "tokenId",
          "type": "uint256"
        }
      ],
      "name": "transferFrom",
      "outputs": [],
      "stateMutability": "nonpayable",
      "type": "function"
    },
    {
      "inputs": [
        {
          "internalType": "address",
          "name": "newOwner",
          "type": "address"
        }
      ],
      "name": "transferOwnership",
      "outputs": [],
      "stateMutability": "nonpayable",
      "type": "function"
    }
  ],
  "bytecode": "0x60806040523480156200001157600080fd5b50336040518060400160405280601081526020016f10dbdb1b1959d955995c9cd94814d09560821b8152506040518060400160405280600581526020016410d594d09560da1b81525081600090816200006b9190620001b5565b5060016200007a8282620001b5565b5050506001600160a01b038116620000ac57604051631e4fbdf760e01b81526000600482015260240160405180910390fd5b620000b781620000be565b5062000281565b600780546001600160a01b038381166001600160a01b0319831681179093556040519116919082907f8be0079c531659141344cd1fd0a4f28419497f9722a3daafe3b4186f6b6457e090600090a35050565b634e487b7160e01b600052604160045260246000fd5b600181811c908216806200013b57607f821691505b6020821081036200015c57634e487b7160e01b600052602260045260246000fd5b50919050565b601f821115620001b057600081815260208120601f850160051c810160208610156200018b5750805b601f850160051c820191505b81811015620001ac5782815560010162000197565b5050505b505050565b81516001600160401b03811115620001d157620001d162000110565b620001e981620001e2845462000126565b8462000162565b602080601f831160018114620002215760008415620002085750858301515b600019600386901b1c1916600185901b178555620001ac565b600085815260208120601f198616915b82811015620002525788860151825594840194600190910190840162000231565b5085821015620002715787850151600019600388901b60f8161c191681555b5050505050600190811b01905550565b6114b180620002916000396000f3fe608060405234801561001057600080fd5b50600436106101165760003560e01c80638da5cb5b116100a2578063a2309ff811610071578063a2309ff814610234578063b88d4fde1461023c578063c87b56dd1461024f578063e985e9c514610262578063f2fde38b1461027557600080fd5b80638da5cb5b146101fa57806395d89b411461020b5780639907119014610213578063a22cb4651461022657600080fd5b806323b872dd116100e957806323b872dd1461019857806342842e0e146101ab5780636352211e146101be57806370a08231146101d1578063715018a6146101f257600080fd5b806301ffc9a71461011b57806306fdde0314610143578063081812fc14610158578063095ea7b314610183575b600080fd5b61012e610129366004610f4a565b610288565b60405190151581526020015b60405180910390f35b61014b610299565b60405161013a9190610fb7565b61016b610166366004610fca565b61032b565b6040516001600160a01b03909116815260200161013a565b610196610191366004610fff565b610354565b005b6101966101a6366004611029565b610399565b6101966101b9366004611029565b610424565b61016b6101cc366004610fca565b610444565b6101e46101df366004611065565b61044f565b60405190815260200161013a565b610196610497565b6007546001600160a01b031661016b565b61014b6104ab565b6101e461022136600461112c565b6104ba565b6101966101913660046111a0565b6008546101e4565b61019661024a3660046111dc565b610539565b61014b61025d366004610fca565b610551565b61012e610270366004611258565b61055c565b610196610283366004611065565b61058a565b6000610293826105c8565b92915050565b6060600080546102a89061128b565b80601f01602080910402602001604051908101604052809291908181526020018280546102d49061128b565b80156103215780601f106102f657610100808354040283529160200191610321565b820191906000526020600020905b81548152906001019060200180831161030457829003601f168201915b5050505050905090565b6000610336826105ed565b506000828152600460205260409020546001600160a01b0316610293565b60405162461bcd60e51b81526020600482015260156024820152745342543a206e6f6e2d7472616e7366657261626c6560581b60448201526064015b60405180910390fd5b6001600160a01b0382166103c357604051633250574960e11b815260006004820152602401610390565b60006103d0838333610626565b9050836001600160a01b0316816001600160a01b03161461041e576040516364283d7b60e01b81526001600160a01b0380861660048301526024820184905282166044820152606401610390565b50505050565b61043f83838360405180602001604052806000815250610539565b505050565b6000610293826105ed565b60006001600160a01b03821661047b576040516322718ad960e21b815260006004820152602401610390565b506001600160a01b031660009081526003602052604090205490565b61049f610698565b6104a960006106c5565b565b6060600180546102a89061128b565b60006104c4610698565b60088054600091826104d5836112c5565b9190505590506104e58582610717565b6104ef8185610735565b80856001600160a01b03167f4b9ad712e7eaa8cc24efaf239a9107a8e27385fb66e301d70c4f0d5747bde653856040516105299190610fb7565b60405180910390a3949350505050565b610544848484610399565b61041e3385858585610785565b6060610293826108b0565b6001600160a01b03918216600090815260056020908152604080832093909416825291909152205460ff1690565b610592610698565b6001600160a01b0381166105bc57604051631e4fbdf760e01b815260006004820152602401610390565b6105c5816106c5565b50565b60006001600160e01b03198216632483248360e11b14806102935750610293826109c1565b6000818152600260205260408120546001600160a01b03168061029357604051637e27328960e01b815260048101849052602401610390565b6000828152600260205260408120546001600160a01b031680156106845760405162461bcd60e51b81526020600482015260156024820152745342543a206e6f6e2d7472616e7366657261626c6560581b6044820152606401610390565b61068f858585610a11565b95945050505050565b6007546001600160a01b031633146104a95760405163118cdaa760e01b8152336004820152602401610390565b600780546001600160a01b038381166001600160a01b0319831681179093556040519116919082907f8be0079c531659141344cd1fd0a4f28419497f9722a3daafe3b4186f6b6457e090600090a35050565b610731828260405180602001604052806000815250610b0a565b5050565b600082815260066020526040902061074d8282611332565b506040518281527ff8e1a15aba9398e019f0b49df1a4fde98ee17ae345cb5f6b5e2c27f5033e8ce79060200160405180910390a15050565b6001600160a01b0383163b156108a957604051630a85bd0160e11b81526001600160a01b0384169063150b7a02906107c79088908890879087906004016113f2565b6020604051808303816000875af1925050508015610802575060408051601f3d908101601f191682019092526107ff9181019061142f565b60015b61086b573d808015610830576040519150601f19603f3d011682016040523d82523d6000602084013e610835565b606091505b50805160000361086357604051633250574960e11b81526001600160a01b0385166004820152602401610390565b805160208201fd5b6001600160e01b03198116630a85bd0160e11b146108a757604051633250574960e11b81526001600160a01b0385166004820152602401610390565b505b5050505050565b60606108bb826105ed565b50600082815260066020526040812080546108d59061128b565b80601f01602080910402602001604051908101604052809291908181526020018280546109019061128b565b801561094e5780601f106109235761010080835404028352916020019161094e565b820191906000526020600020905b81548152906001019060200180831161093157829003601f168201915b50505050509050600061096c60408051602081019091526000815290565b9050805160000361097e575092915050565b8151156109b057808260405160200161099892919061144c565b60405160208183030381529060405292505050919050565b6109b984610b22565b949350505050565b60006001600160e01b031982166380ac58cd60e01b14806109f257506001600160e01b03198216635b5e139f60e01b145b8061029357506301ffc9a760e01b6001600160e01b0319831614610293565b6000828152600260205260408120546001600160a01b0390811690831615610a3e57610a3e818486610b97565b6001600160a01b03811615610a7c57610a5b600085600080610bfb565b6001600160a01b038116600090815260036020526040902080546000190190555b6001600160a01b03851615610aab576001600160a01b0385166000908152600360205260409020805460010190555b60008481526002602052604080822080546001600160a01b0319166001600160a01b0389811691821790925591518793918516917fddf252ad1be2c89b69c2b068fc378daa952ba7f163c4a11628f55a4df523b3ef91a4949350505050565b610b148383610d01565b61043f336000858585610785565b6060610b2d826105ed565b506000610b4560408051602081019091526000815290565b90506000815111610b655760405180602001604052806000815250610b90565b80610b6f84610d66565b604051602001610b8092919061144c565b6040516020818303038152906040525b9392505050565b610ba2838383610df9565b61043f576001600160a01b038316610bd057604051637e27328960e01b815260048101829052602401610390565b60405163177e802f60e01b81526001600160a01b038316600482015260248101829052604401610390565b8080610c0f57506001600160a01b03821615155b15610cd1576000610c1f846105ed565b90506001600160a01b03831615801590610c4b5750826001600160a01b0316816001600160a01b031614155b8015610c5e5750610c5c818461055c565b155b15610c875760405163a9fbf51f60e01b81526001600160a01b0384166004820152602401610390565b8115610ccf5783856001600160a01b0316826001600160a01b03167f8c5be1e5ebec7d5bd14f71427d1e84f3dd0314c0f7b2291e5b200ac8c7c3b92560405160405180910390a45b505b5050600090815260046020526040902080546001600160a01b0319166001600160a01b0392909216919091179055565b6001600160a01b038216610d2b57604051633250574960e11b815260006004820152602401610390565b6000610d3983836000610626565b90506001600160a01b0381161561043f576040516339e3563760e11b815260006004820152602401610390565b60606000610d7383610e5c565b600101905060008167ffffffffffffffff811115610d9357610d93611080565b6040519080825280601f01601f191660200182016040528015610dbd576020820181803683370190505b5090508181016020015b600019016f181899199a1a9b1b9c1cb0b131b232b360811b600a86061a8153600a8504945084610dc757509392505050565b60006001600160a01b038316158015906109b95750826001600160a01b0316846001600160a01b03161480610e335750610e33848461055c565b806109b95750506000908152600460205260409020546001600160a01b03908116911614919050565b60008072184f03e93ff9f4daa797ed6e38ed64bf6a1f0160401b8310610e9b5772184f03e93ff9f4daa797ed6e38ed64bf6a1f0160401b830492506040015b6d04ee2d6d415b85acef81000000008310610ec7576d04ee2d6d415b85acef8100000000830492506020015b662386f26fc100008310610ee557662386f26fc10000830492506010015b6305f5e1008310610efd576305f5e100830492506008015b6127108310610f1157612710830492506004015b60648310610f23576064830492506002015b600a83106102935760010192915050565b6001600160e01b0319811681146105c557600080fd5b600060208284031215610f5c57600080fd5b8135610b9081610f34565b60005b83811015610f82578181015183820152602001610f6a565b50506000910152565b60008151808452610fa3816020860160208601610f67565b601f01601f19169290920160200192915050565b602081526000610b906020830184610f8b565b600060208284031215610fdc57600080fd5b5035919050565b80356001600160a01b0381168114610ffa57600080fd5b919050565b6000806040838503121561101257600080fd5b61101b83610fe3565b946020939093013593505050565b60008060006060848603121561103e57600080fd5b61104784610fe3565b925061105560208501610fe3565b9150604084013590509250925092565b60006020828403121561107757600080fd5b610b9082610fe3565b634e487b7160e01b600052604160045260246000fd5b600067ffffffffffffffff808411156110b1576110b1611080565b604051601f8501601f19908116603f011681019082821181831017156110d9576110d9611080565b816040528093508581528686860111156110f257600080fd5b858560208301376000602087830101525050509392505050565b600082601f83011261111d57600080fd5b610b9083833560208501611096565b60008060006060848603121561114157600080fd5b61114a84610fe3565b9250602084013567ffffffffffffffff8082111561116757600080fd5b6111738783880161110c565b9350604086013591508082111561118957600080fd5b506111968682870161110c565b9150509250925092565b600080604083850312156111b357600080fd5b6111bc83610fe3565b9150602083013580151581146111d157600080fd5b809150509250929050565b600080600080608085870312156111f257600080fd5b6111fb85610fe3565b935061120960208601610fe3565b925060408501359150606085013567ffffffffffffffff81111561122c57600080fd5b8501601f8101871361123d57600080fd5b61124c87823560208401611096565b91505092959194509250565b6000806040838503121561126b57600080fd5b61127483610fe3565b915061128260208401610fe3565b90509250929050565b600181811c9082168061129f57607f821691505b6020821081036112bf57634e487b7160e01b600052602260045260246000fd5b50919050565b6000600182016112e557634e487b7160e01b600052601160045260246000fd5b5060010190565b601f82111561043f57600081815260208120601f850160051c810160208610156113135750805b601f850160051c820191505b818110156108a75782815560010161131f565b815167ffffffffffffffff81111561134c5761134c611080565b6113608161135a845461128b565b846112ec565b602080601f831160018114611395576000841561137d5750858301515b600019600386901b1c1916600185901b1785556108a7565b600085815260208120601f198616915b828110156113c4578886015182559484019460019091019084016113a5565b50858210156113e25787850151600019600388901b60f8161c191681555b5050505050600190811b01905550565b6001600160a01b038581168252841660208201526040810183905260806060820181905260009061142590830184610f8b565b9695505050505050565b60006020828403121561144157600080fd5b8151610b9081610f34565b6000835161145e818460208801610f67565b835190830190611472818360208801610f67565b0194935050505056fea26469706673582212206a8ef252f063452a6ae588812c18c25bdf06851740cace266e624e8700694bf064736f6c63430008140033",
  "linkReferences": {},
  "deployedLinkReferences": {}
}